:020000020000FC
:100000000AC0112722273AE02A95F1F71A95E1F75D
:100010003A95D1F708955527662777274FEF4AB9C4
:1000200040E044B904C0542F40E0DFEF10C093B16A
:100030000E940100DBB990959038A8F7492B4095B4
:10004000D42F4095F4CF642F40E0DFEF0CC093B184
:100050000E940100DBB990959038A8F7492B409594
:10006000D42F4095F4CF93B1D0EFDBB90E940100BB
:100070009E3F41F09D3F59F09B3F81F0973FA1F09B
:1000800090E0F1CF752F760F70957BB911C0752F69
:1000900060956395760F70957BB90AC0569F009462
:1000A0000BB806C07395561B5617E4F770957BB9CD
:0200B000FFCF80
:00000001FF
